{
  "contractName": "Auction",
  "abi": [
    {
      "inputs": [],
      "stateMutability": "nonpayable",
      "type": "constructor"
    },
    {
      "inputs": [],
      "name": "highestBid",
      "outputs": [
        {
          "internalType": "uint256",
          "name": "",
          "type": "uint256"
        }
      ],
      "stateMutability": "view",
      "type": "function",
      "constant": true
    },
    {
      "inputs": [],
      "name": "highestBidder",
      "outputs": [
        {
          "internalType": "address",
          "name": "",
          "type": "address"
        }
      ],
      "stateMutability": "view",
      "type": "function",
      "constant": true
    },
    {
      "inputs": [],
      "name": "owner",
      "outputs": [
        {
          "internalType": "address",
          "name": "",
          "type": "address"
        }
      ],
      "stateMutability": "view",
      "type": "function",
      "constant": true
    },
    {
      "inputs": [
        {
          "internalType": "address",
          "name": "",
          "type": "address"
        }
      ],
      "name": "userBalances",
      "outputs": [
        {
          "internalType": "uint256",
          "name": "",
          "type": "uint256"
        }
      ],
      "stateMutability": "view",
      "type": "function",
      "constant": true
    },
    {
      "stateMutability": "payable",
      "type": "receive",
      "payable": true
    },
    {
      "inputs": [],
      "name": "bid",
      "outputs": [],
      "stateMutability": "payable",
      "type": "function",
      "payable": true
    },
    {
      "inputs": [],
      "name": "withdraw",
      "outputs": [],
      "stateMutability": "payable",
      "type": "function",
      "payable": true
    }
  ],
  "bytecode": "0x608060405234801561001057600080fd5b506000600281905550336000806101000a81548173ffffffffffffffffffffffffffffffffffffffff021916908373ffffffffffffffffffffffffffffffffffffffff1602179055506106e7806100686000396000f3fe6080604052600436106100595760003560e01c80631998aeef1461006557806326224c641461006f5780633ccfd60b146100d45780638da5cb5b146100de57806391f901571461011f578063d57bde791461016057610060565b3661006057005b600080fd5b61006d61018b565b005b34801561007b57600080fd5b506100be6004803603602081101561009257600080fd5b81019080803573ffffffffffffffffffffffffffffffffffffffff1690602001909291905050506103bd565b6040518082815260200191505060405180910390f35b6100dc6103d5565b005b3480156100ea57600080fd5b506100f3610600565b604051808273ffffffffffffffffffffffffffffffffffffffff16815260200191505060405180910390f35b34801561012b57600080fd5b50610134610624565b604051808273ffffffffffffffffffffffffffffffffffffffff16815260200191505060405180910390f35b34801561016c57600080fd5b5061017561064a565b6040518082815260200191505060405180910390f35b6000339050600034905060008054906101000a900473ffffffffffffffffffffffffffffffffffffffff1673ffffffffffffffffffffffffffffffffffffffff168273ffffffffffffffffffffffffffffffffffffffff16141580156101f2575060025481115b610247576040517f08c379a00000000000000000000000000000000000000000000000000000000081526004018080602001828103825260268152602001806106516026913960400191505060405180910390fd5b8173ffffffffffffffffffffffffffffffffffffffff166108fc600360008573ffffffffffffffffffffffffffffffffffffffff1673ffffffffffffffffffffffffffffffffffffffff168152602001908152602001600020549081150290604051600060405180830381858888f1935050505061032d576040517f08c379a00000000000000000000000000000000000000000000000000000000081526004018080602001828103825260158152602001807f4661696c656420746f2073656e642045746865722e000000000000000000000081525060200191505060405180910390fd5b81600160006101000a81548173ffffffffffffffffffffffffffffffffffffffff021916908373ffffffffffffffffffffffffffffffffffffffff1602179055508060028190555080600360008473ffffffffffffffffffffffffffffffffffffffff1673ffffffffffffffffffffffffffffffffffffffff168152602001908152602001600020819055505050565b60036020528060005260406000206000915090505481565b60003390506000600360008373ffffffffffffffffffffffffffffffffffffffff1673ffffffffffffffffffffffffffffffffffffffff1681526020019081526020016000205490506000600360008473ffffffffffffffffffffffffffffffffffffffff1673ffffffffffffffffffffffffffffffffffffffff168152602001908152602001600020541180156104bb57508173ffffffffffffffffffffffffffffffffffffffff16600160009054906101000a900473ffffffffffffffffffffffffffffffffffffffff1673ffffffffffffffffffffffffffffffffffffffff1614155b610510576040517f08c379a000000000000000000000000000000000000000000000000000000000815260040180806020018281038252603b815260200180610677603b913960400191505060405180910390fd5b8173ffffffffffffffffffffffffffffffffffffffff166108fc829081150290604051600060405180830381858888f193505050506105b7576040517f08c379a00000000000000000000000000000000000000000000000000000000081526004018080602001828103825260138152602001807f4661696c656420746f2077697468647261772e0000000000000000000000000081525060200191505060405180910390fd5b6000600360008473ffffffffffffffffffffffffffffffffffffffff1673ffffffffffffffffffffffffffffffffffffffff168152602001908152602001600020819055505050565b60008054906101000a900473ffffffffffffffffffffffffffffffffffffffff1681565b600160009054906101000a900473ffffffffffffffffffffffffffffffffffffffff1681565b6002548156fe596f752061726520746865206f776e6572206f722062696420697320746f6f20736d616c6c2e596f75206e65656420746f206d616b65206120626964206669727374206f7220796f7520617265207468652068696768657374206269646465722ea26469706673582212204ac412bd31f49cb0b45c4aef48a1953a816a895bf3205acd43f2417265e42ae664736f6c63430007060033",
  "immutableReferences": {},
  "source": "// SPDX-License-Identifier: GPL-3.0;\npragma solidity >=0.7.0 < 0.8.0;\n\ncontract Auction {\n    \n    address public owner;\n    address public highestBidder; // The highest bidder's address\n    uint public highestBid; // The amount of the highest bid\n    mapping(address => uint) public userBalances; // mapping for the amount to return\n    \n    constructor(){\n        highestBid = 0;\n        owner = msg.sender;\n    }\n\n    function bid() public payable{\n        address payable Bidder_address = msg.sender;\n        uint Bidder_value = msg.value;\n        \n        require((Bidder_address != owner) && (Bidder_value > highestBid), \"You are the owner or bid is too small.\");\n        require(Bidder_address.send(userBalances[Bidder_address]), \"Failed to send Ether.\");\n        \n        highestBidder = Bidder_address;\n        highestBid = Bidder_value;\n        userBalances[Bidder_address] = Bidder_value;\n    }\n\n    function withdraw() public payable {\n        address payable Bidder_address = msg.sender;\n        uint Amount = userBalances[Bidder_address];\n        \n        require((userBalances[Bidder_address] > 0) && (highestBidder != Bidder_address), \"You need to make a bid first or you are the highest bidder.\");\n\t    require(Bidder_address.send(Amount), \"Failed to withdraw.\");\n\t\n\t    userBalances[Bidder_address] = 0;\n    }\n    \n    receive() external payable {\n    }\n}\n",
  "sourcePath": "/home/itselios/Desktop/Smart_Contract_app/contracts/Auction.sol",
  "compiler": {
    "name": "solc",
    "version": "0.7.6+commit.7338295f.Emscripten.clang"
  },
  "schemaVersion": "3.4.1",
  "updatedAt": "2021-05-31T16:11:31.453Z",
  "networkType": "ethereum",
  "devdoc": {
    "kind": "dev",
    "methods": {},
    "version": 1
  },
  "userdoc": {
    "kind": "user",
    "methods": {},
    "version": 1
  }
}